{
  "contractName": "CrowdFunding",
  "abi": [
    {
      "inputs": [],
      "stateMutability": "nonpayable",
      "type": "constructor"
    },
    {
      "anonymous": false,
      "inputs": [
        {
          "indexed": false,
          "internalType": "uint256",
          "name": "id",
          "type": "uint256"
        },
        {
          "indexed": false,
          "internalType": "string",
          "name": "name",
          "type": "string"
        },
        {
          "indexed": false,
          "internalType": "string",
          "name": "desc",
          "type": "string"
        },
        {
          "indexed": false,
          "internalType": "address",
          "name": "owner",
          "type": "address"
        },
        {
          "indexed": false,
          "internalType": "uint256",
          "name": "endDate",
          "type": "uint256"
        },
        {
          "indexed": false,
          "internalType": "bool",
          "name": "exists",
          "type": "bool"
        },
        {
          "indexed": false,
          "internalType": "uint256",
          "name": "balance",
          "type": "uint256"
        },
        {
          "indexed": false,
          "internalType": "uint256",
          "name": "target",
          "type": "uint256"
        }
      ],
      "name": "ProjectCreated",
      "type": "event"
    },
    {
      "anonymous": false,
      "inputs": [
        {
          "indexed": false,
          "internalType": "uint256",
          "name": "id",
          "type": "uint256"
        },
        {
          "indexed": false,
          "internalType": "string",
          "name": "name",
          "type": "string"
        },
        {
          "indexed": false,
          "internalType": "uint256",
          "name": "balance",
          "type": "uint256"
        }
      ],
      "name": "ProjectEnded",
      "type": "event"
    },
    {
      "anonymous": false,
      "inputs": [
        {
          "indexed": false,
          "internalType": "uint256",
          "name": "id",
          "type": "uint256"
        },
        {
          "indexed": false,
          "internalType": "address",
          "name": "owner",
          "type": "address"
        },
        {
          "indexed": false,
          "internalType": "address",
          "name": "funder",
          "type": "address"
        },
        {
          "indexed": false,
          "internalType": "uint256",
          "name": "amount",
          "type": "uint256"
        }
      ],
      "name": "ProjectFunded",
      "type": "event"
    },
    {
      "inputs": [
        {
          "internalType": "uint256",
          "name": "",
          "type": "uint256"
        },
        {
          "internalType": "address",
          "name": "",
          "type": "address"
        }
      ],
      "name": "contributions",
      "outputs": [
        {
          "internalType": "uint256",
          "name": "",
          "type": "uint256"
        }
      ],
      "stateMutability": "view",
      "type": "function",
      "constant": true
    },
    {
      "inputs": [],
      "name": "name",
      "outputs": [
        {
          "internalType": "string",
          "name": "",
          "type": "string"
        }
      ],
      "stateMutability": "view",
      "type": "function",
      "constant": true
    },
    {
      "inputs": [],
      "name": "projectCount",
      "outputs": [
        {
          "internalType": "uint256",
          "name": "",
          "type": "uint256"
        }
      ],
      "stateMutability": "view",
      "type": "function",
      "constant": true
    },
    {
      "inputs": [
        {
          "internalType": "uint256",
          "name": "",
          "type": "uint256"
        }
      ],
      "name": "projects",
      "outputs": [
        {
          "internalType": "uint256",
          "name": "id",
          "type": "uint256"
        },
        {
          "internalType": "string",
          "name": "name",
          "type": "string"
        },
        {
          "internalType": "string",
          "name": "desc",
          "type": "string"
        },
        {
          "internalType": "address",
          "name": "owner",
          "type": "address"
        },
        {
          "internalType": "uint256",
          "name": "endDate",
          "type": "uint256"
        },
        {
          "internalType": "bool",
          "name": "exists",
          "type": "bool"
        },
        {
          "internalType": "uint256",
          "name": "balance",
          "type": "uint256"
        },
        {
          "internalType": "uint256",
          "name": "target",
          "type": "uint256"
        }
      ],
      "stateMutability": "view",
      "type": "function",
      "constant": true
    },
    {
      "inputs": [
        {
          "internalType": "string",
          "name": "_name",
          "type": "string"
        },
        {
          "internalType": "string",
          "name": "_desc",
          "type": "string"
        },
        {
          "internalType": "uint256",
          "name": "_endDate",
          "type": "uint256"
        },
        {
          "internalType": "uint256",
          "name": "_target",
          "type": "uint256"
        }
      ],
      "name": "createProject",
      "outputs": [],
      "stateMutability": "nonpayable",
      "type": "function"
    },
    {
      "inputs": [
        {
          "internalType": "uint256",
          "name": "_id",
          "type": "uint256"
        }
      ],
      "name": "fundProject",
      "outputs": [],
      "stateMutability": "payable",
      "type": "function",
      "payable": true
    },
    {
      "inputs": [
        {
          "internalType": "uint256",
          "name": "_id",
          "type": "uint256"
        }
      ],
      "name": "closeProject",
      "outputs": [],
      "stateMutability": "nonpayable",
      "type": "function"
    },
    {
      "inputs": [
        {
          "internalType": "uint256",
          "name": "project_id",
          "type": "uint256"
        }
      ],
      "name": "getContibutionsLength",
      "outputs": [
        {
          "internalType": "uint256",
          "name": "length",
          "type": "uint256"
        }
      ],
      "stateMutability": "view",
      "type": "function",
      "constant": true
    },
    {
      "inputs": [
        {
          "internalType": "uint256",
          "name": "project_id",
          "type": "uint256"
        },
        {
          "internalType": "uint256",
          "name": "position",
          "type": "uint256"
        }
      ],
      "name": "getContributor",
      "outputs": [
        {
          "internalType": "address",
          "name": "",
          "type": "address"
        }
      ],
      "stateMutability": "view",
      "type": "function",
      "constant": true
    },
    {
      "inputs": [],
      "name": "balanceOfProjects",
      "outputs": [
        {
          "internalType": "uint256",
          "name": "",
          "type": "uint256"
        }
      ],
      "stateMutability": "view",
      "type": "function",
      "constant": true
    }
  ],
  "bytecode": "0x608060405260006001553480156200001657600080fd5b506040518060400160405280601d81526020017f4d61726b6574706c61636520666f722063726f77642066756e64696e6700000081525060009080519060200190620000649291906200006b565b5062000180565b82805462000079906200014a565b90600052602060002090601f0160209004810192826200009d5760008555620000e9565b82601f10620000b857805160ff1916838001178555620000e9565b82800160010185558215620000e9579182015b82811115620000e8578251825591602001919060010190620000cb565b5b509050620000f89190620000fc565b5090565b5b8082111562000117576000816000905550600101620000fd565b5090565b7f4e487b7100000000000000000000000000000000000000000000000000000000600052602260045260246000fd5b600060028204905060018216806200016357607f821691505b602082108114156200017a57620001796200011b565b5b50919050565b611d4480620001906000396000f3fe6080604052600436106100915760003560e01c806344a982e71161005957806344a982e7146101aa5780636c563abe146101e757806393dc12e61461020357806394ba97091461022c578063d98125811461025557610091565b806306fdde0314610096578063107046bd146100c15780631e32880c1461010557806336fbad26146101425780633d891f591461016d575b600080fd5b3480156100a257600080fd5b506100ab610280565b6040516100b8919061141a565b60405180910390f35b3480156100cd57600080fd5b506100e860048036038101906100e39190611486565b61030e565b6040516100fc98979695949392919061151e565b60405180910390f35b34801561011157600080fd5b5061012c60048036038101906101279190611486565b610493565b60405161013991906115aa565b60405180910390f35b34801561014e57600080fd5b50610157610523565b60405161016491906115aa565b60405180910390f35b34801561017957600080fd5b50610194600480360381019061018f91906115f1565b610529565b6040516101a191906115aa565b60405180910390f35b3480156101b657600080fd5b506101d160048036038101906101cc9190611631565b61054e565b6040516101de9190611671565b60405180910390f35b61020160048036038101906101fc9190611486565b6105ef565b005b34801561020f57600080fd5b5061022a60048036038101906102259190611486565b610b2a565b005b34801561023857600080fd5b50610253600480360381019061024e91906117c1565b610fb2565b005b34801561026157600080fd5b5061026a611178565b60405161027791906115aa565b60405180910390f35b6000805461028d9061188f565b80601f01602080910402602001604051908101604052809291908181526020018280546102b99061188f565b80156103065780601f106102db57610100808354040283529160200191610306565b820191906000526020600020905b8154815290600101906020018083116102e957829003601f168201915b505050505081565b60026020528060005260406000206000915090508060000154908060010180546103379061188f565b80601f01602080910402602001604051908101604052809291908181526020018280546103639061188f565b80156103b05780601f10610385576101008083540402835291602001916103b0565b820191906000526020600020905b81548152906001019060200180831161039357829003601f168201915b5050505050908060020180546103c59061188f565b80601f01602080910402602001604051908101604052809291908181526020018280546103f19061188f565b801561043e5780601f106104135761010080835404028352916020019161043e565b820191906000526020600020905b81548152906001019060200180831161042157829003601f168201915b5050505050908060030160009054906101000a900473ffffffffffffffffffffffffffffffffffffffff16908060040154908060050160009054906101000a900460ff16908060060154908060070154905088565b600081600115156002600083815260200190815260200160002060050160009054906101000a900460ff16151514610500576040517f08c379a00000000000000000000000000000000000000000000000000000000081526004016104f79061190d565b60405180910390fd5b61051b60046000858152602001908152602001600020611180565b915050919050565b60015481565b6003602052816000526040600020602052806000526040600020600091509150505481565b600082600115156002600083815260200190815260200160002060050160009054906101000a900460ff161515146105bb576040517f08c379a00000000000000000000000000000000000000000000000000000000081526004016105b29061190d565b60405180910390fd5b60006105e2846004600088815260200190815260200160002061119590919063ffffffff16565b9050809250505092915050565b80600115156002600083815260200190815260200160002060050160009054906101000a900460ff1615151461065a576040517f08c379a00000000000000000000000000000000000000000000000000000000081526004016106519061190d565b60405180910390fd5b60006002600084815260200190815260200160002060405180610100016040529081600082015481526020016001820180546106959061188f565b80601f01602080910402602001604051908101604052809291908181526020018280546106c19061188f565b801561070e5780601f106106e35761010080835404028352916020019161070e565b820191906000526020600020905b8154815290600101906020018083116106f157829003601f168201915b505050505081526020016002820180546107279061188f565b80601f01602080910402602001604051908101604052809291908181526020018280546107539061188f565b80156107a05780601f10610775576101008083540402835291602001916107a0565b820191906000526020600020905b81548152906001019060200180831161078357829003601f168201915b505050505081526020016003820160009054906101000a900473ffffffffffffffffffffffffffffffffffffffff1673ffffffffffffffffffffffffffffffffffffffff1673ffffffffffffffffffffffffffffffffffffffff168152602001600482015481526020016005820160009054906101000a900460ff161515151581526020016006820154815260200160078201548152505090506000816060015190506000826000015111801561085d5750600154826000015111155b61086657600080fd5b816080015142106108ac576040517f08c379a00000000000000000000000000000000000000000000000000000000081526004016108a390611979565b60405180910390fd5b3373ffffffffffffffffffffffffffffffffffffffff168173ffffffffffffffffffffffffffffffffffffffff16141561091b576040517f08c379a000000000000000000000000000000000000000000000000000000000815260040161091290611a0b565b60405180910390fd5b6000341161092857600080fd5b348260c00181815161093a9190611a5a565b91508181525050816002600086815260200190815260200160002060008201518160000155602082015181600101908051906020019061097b9291906112de565b5060408201518160020190805190602001906109989291906112de565b5060608201518160030160006101000a81548173ffffffffffffffffffffffffffffffffffffffff021916908373ffffffffffffffffffffffffffffffffffffffff1602179055506080820151816004015560a08201518160050160006101000a81548160ff02191690831515021790555060c0820151816006015560e08201518160070155905050346003600086815260200190815260200160002060003373ffffffffffffffffffffffffffffffffffffffff1673ffffffffffffffffffffffffffffffffffffffff1681526020019081526020016000206000828254610a819190611a5a565b9250508190555060011515610ab133600460008881526020019081526020016000206111af90919063ffffffff16565b151514610adf57610add33600460008781526020019081526020016000206111df90919063ffffffff16565b505b7fed1103816b4f1126eb83a3e5dbdd64821d6adebd7011092e8a7e9566cfa8f3f1826000015183606001513334604051610b1c9493929190611ab0565b60405180910390a150505050565b806002600082815260200190815260200160002060030160009054906101000a900473ffffffffffffffffffffffffffffffffffffffff1673ffffffffffffffffffffffffffffffffffffffff163373ffffffffffffffffffffffffffffffffffffffff1614610bcf576040517f08c379a0000000000000000000000000000000000000000000000000000000008152600401610bc690611b67565b60405180910390fd5b81600115156002600083815260200190815260200160002060050160009054906101000a900460ff16151514610c3a576040517f08c379a0000000000000000000000000000000000000000000000000000000008152600401610c319061190d565b60405180910390fd5b6000600260008581526020019081526020016000206040518061010001604052908160008201548152602001600182018054610c759061188f565b80601f0160208091040260200160405190810160405280929190818152602001828054610ca19061188f565b8015610cee5780601f10610cc357610100808354040283529160200191610cee565b820191906000526020600020905b815481529060010190602001808311610cd157829003601f168201915b50505050508152602001600282018054610d079061188f565b80601f0160208091040260200160405190810160405280929190818152602001828054610d339061188f565b8015610d805780601f10610d5557610100808354040283529160200191610d80565b820191906000526020600020905b815481529060010190602001808311610d6357829003601f168201915b505050505081526020016003820160009054906101000a900473ffffffffffffffffffffffffffffffffffffffff1673ffffffffffffffffffffffffffffffffffffffff1673ffffffffffffffffffffffffffffffffffffffff168152602001600482015481526020016005820160009054906101000a900460ff1615151515815260200160068201548152602001600782015481525050905060008160a0019015159081151581525050806060015173ffffffffffffffffffffffffffffffffffffffff166108fc8260c001519081150290604051600060405180830381858888f19350505050158015610e79573d6000803e3d6000fd5b5060008160c00181815250508060026000868152602001908152602001600020600082015181600001556020820151816001019080519060200190610ebf9291906112de565b506040820151816002019080519060200190610edc9291906112de565b5060608201518160030160006101000a81548173ffffffffffffffffffffffffffffffffffffffff021916908373ffffffffffffffffffffffffffffffffffffffff1602179055506080820151816004015560a08201518160050160006101000a81548160ff02191690831515021790555060c0820151816006015560e082015181600701559050507f0d77a7c0d00f191be30313fd4836ac7cefb3488b8c158ae53fc717a858675770816000015182602001518360c00151604051610fa493929190611b87565b60405180910390a150505050565b6000845111610fc057600080fd5b60008111610fcd57600080fd5b60008211610fda57600080fd5b60016000815480929190610fed90611bc5565b919050555060405180610100016040528060015481526020018581526020018481526020013373ffffffffffffffffffffffffffffffffffffffff16815260200183815260200160011515815260200160008152602001828152506002600060015481526020019081526020016000206000820151816000015560208201518160010190805190602001906110839291906112de565b5060408201518160020190805190602001906110a09291906112de565b5060608201518160030160006101000a81548173ffffffffffffffffffffffffffffffffffffffff021916908373ffffffffffffffffffffffffffffffffffffffff1602179055506080820151816004015560a08201518160050160006101000a81548160ff02191690831515021790555060c0820151816006015560e082015181600701559050507f318ae2105e4ed352c2e4ff310936d968690d612618b61006796a8a7709a1b00860015485853386600160008860405161116a989796959493929190611c53565b60405180910390a150505050565b600047905090565b600061118e8260000161120f565b9050919050565b60006111a48360000183611220565b60001c905092915050565b60006111d7836000018373ffffffffffffffffffffffffffffffffffffffff1660001b61124b565b905092915050565b6000611207836000018373ffffffffffffffffffffffffffffffffffffffff1660001b61126e565b905092915050565b600081600001805490509050919050565b600082600001828154811061123857611237611cdf565b5b9060005260206000200154905092915050565b600080836001016000848152602001908152602001600020541415905092915050565b600061127a838361124b565b6112d35782600001829080600181540180825580915050600190039060005260206000200160009091909190915055826000018054905083600101600084815260200190815260200160002081905550600190506112d8565b600090505b92915050565b8280546112ea9061188f565b90600052602060002090601f01602090048101928261130c5760008555611353565b82601f1061132557805160ff1916838001178555611353565b82800160010185558215611353579182015b82811115611352578251825591602001919060010190611337565b5b5090506113609190611364565b5090565b5b8082111561137d576000816000905550600101611365565b5090565b600081519050919050565b600082825260208201905092915050565b60005b838110156113bb5780820151818401526020810190506113a0565b838111156113ca576000848401525b50505050565b6000601f19601f8301169050919050565b60006113ec82611381565b6113f6818561138c565b935061140681856020860161139d565b61140f816113d0565b840191505092915050565b6000602082019050818103600083015261143481846113e1565b905092915050565b6000604051905090565b600080fd5b600080fd5b6000819050919050565b61146381611450565b811461146e57600080fd5b50565b6000813590506114808161145a565b92915050565b60006020828403121561149c5761149b611446565b5b60006114aa84828501611471565b91505092915050565b6114bc81611450565b82525050565b600073ffffffffffffffffffffffffffffffffffffffff82169050919050565b60006114ed826114c2565b9050919050565b6114fd816114e2565b82525050565b60008115159050919050565b61151881611503565b82525050565b600061010082019050611534600083018b6114b3565b8181036020830152611546818a6113e1565b9050818103604083015261155a81896113e1565b905061156960608301886114f4565b61157660808301876114b3565b61158360a083018661150f565b61159060c08301856114b3565b61159d60e08301846114b3565b9998505050505050505050565b60006020820190506115bf60008301846114b3565b92915050565b6115ce816114e2565b81146115d957600080fd5b50565b6000813590506115eb816115c5565b92915050565b6000806040838503121561160857611607611446565b5b600061161685828601611471565b9250506020611627858286016115dc565b9150509250929050565b6000806040838503121561164857611647611446565b5b600061165685828601611471565b925050602061166785828601611471565b9150509250929050565b600060208201905061168660008301846114f4565b92915050565b600080fd5b600080fd5b7f4e487b7100000000000000000000000000000000000000000000000000000000600052604160045260246000fd5b6116ce826113d0565b810181811067ffffffffffffffff821117156116ed576116ec611696565b5b80604052505050565b600061170061143c565b905061170c82826116c5565b919050565b600067ffffffffffffffff82111561172c5761172b611696565b5b611735826113d0565b9050602081019050919050565b82818337600083830152505050565b600061176461175f84611711565b6116f6565b9050828152602081018484840111156117805761177f611691565b5b61178b848285611742565b509392505050565b600082601f8301126117a8576117a761168c565b5b81356117b8848260208601611751565b91505092915050565b600080600080608085870312156117db576117da611446565b5b600085013567ffffffffffffffff8111156117f9576117f861144b565b5b61180587828801611793565b945050602085013567ffffffffffffffff8111156118265761182561144b565b5b61183287828801611793565b935050604061184387828801611471565b925050606061185487828801611471565b91505092959194509250565b7f4e487b7100000000000000000000000000000000000000000000000000000000600052602260045260246000fd5b600060028204905060018216806118a757607f821691505b602082108114156118bb576118ba611860565b5b50919050565b7f50726f6a65637420646f65736e6f742065786973740000000000000000000000600082015250565b60006118f760158361138c565b9150611902826118c1565b602082019050919050565b60006020820190508181036000830152611926816118ea565b9050919050565b7f50726f6a65637420697320636c6f7365642e0000000000000000000000000000600082015250565b600061196360128361138c565b915061196e8261192d565b602082019050919050565b6000602082019050818103600083015261199281611956565b9050919050565b7f4f776e65722063616e27742066756e64207468652070726f6a6563742063726560008201527f61746564206279207468656d73656c7665732e00000000000000000000000000602082015250565b60006119f560338361138c565b9150611a0082611999565b604082019050919050565b60006020820190508181036000830152611a24816119e8565b9050919050565b7f4e487b7100000000000000000000000000000000000000000000000000000000600052601160045260246000fd5b6000611a6582611450565b9150611a7083611450565b9250827fffffffffffffffffffffffffffffffffffffffffffffffffffffffffffffffff03821115611aa557611aa4611a2b565b5b828201905092915050565b6000608082019050611ac560008301876114b3565b611ad260208301866114f4565b611adf60408301856114f4565b611aec60608301846114b3565b95945050505050565b7f4f6e6c79206f776e65722063616e20636c6f736520746869732070726f6a656360008201527f7400000000000000000000000000000000000000000000000000000000000000602082015250565b6000611b5160218361138c565b9150611b5c82611af5565b604082019050919050565b60006020820190508181036000830152611b8081611b44565b9050919050565b6000606082019050611b9c60008301866114b3565b8181036020830152611bae81856113e1565b9050611bbd60408301846114b3565b949350505050565b6000611bd082611450565b91507fffffffffffffffffffffffffffffffffffffffffffffffffffffffffffffffff821415611c0357611c02611a2b565b5b600182019050919050565b6000819050919050565b6000819050919050565b6000611c3d611c38611c3384611c0e565b611c18565b611450565b9050919050565b611c4d81611c22565b82525050565b600061010082019050611c69600083018b6114b3565b8181036020830152611c7b818a6113e1565b90508181036040830152611c8f81896113e1565b9050611c9e60608301886114f4565b611cab60808301876114b3565b611cb860a083018661150f565b611cc560c0830185611c44565b611cd260e08301846114b3565b9998505050505050505050565b7f4e487b7100000000000000000000000000000000000000000000000000000000600052603260045260246000fdfea264697066735822122076b386456a47547969a8f47bdbf1ddcd2d349400be9cf20caf31902c15bc246c64736f6c634300080a0033",
  "immutableReferences": {},
  "source": "// SPDX-License-Identifier: MIT\n\npragma solidity ^0.8.4;\nimport './EnumerableSet.sol';\ncontract CrowdFunding {\n string public name; \n\n  uint256 public projectCount = 0;\n\n  mapping(uint256 => Project) public projects;\n  mapping(uint256 => mapping(address => uint256)) public contributions;\n\n  using EnumerableSet for EnumerableSet.AddressSet;\n\n  mapping(uint256 => EnumerableSet.AddressSet) private contributors;\n\n  struct Project {\n    uint256 id;\n    string name;\n    string desc;\n    address owner;\n    uint256 endDate;\n    bool exists;\n    uint256 balance;\n    uint256 target;\n  }\n\n   event ProjectCreated(\n    uint256 id,\n    string name,\n    string desc,\n    address owner,\n    uint256 endDate,\n    bool exists,\n    uint256 balance,\n    uint256 target\n  );\n\n  event ProjectFunded(uint256 id, address owner, address funder, uint256 amount);\n\n  event ProjectEnded(uint256 id, string name, uint256 balance);\n\n  constructor() {\n    name = 'Marketplace for crowd funding';\n  }\n   modifier OnlyOwner(uint256 projectId) {\n    require(msg.sender == projects[projectId].owner, 'Only owner can close this project');\n    _;\n  }\n  modifier ProjectExists(uint256 projectId) {\n    require(projects[projectId].exists == true, 'Project doesnot exist');\n    _;\n  }\n\n  function createProject(\n    string memory _name,\n    string memory _desc,\n    uint256 _endDate,\n    uint256 _target\n  ) public {\n    // Make sure parameters are correct and supplied\n    // Require a valid name\n    require(bytes(_name).length > 0);\n    // Require a valid target\n    require(_target > 0);\n    // Require a valid endDate\n    require(_endDate > 0);\n    //Increment Project Count\n    projectCount++;\n    // Create the project\n    projects[projectCount] = Project(\n      projectCount,\n      _name,\n      _desc,\n      msg.sender,\n      _endDate,\n      true,\n      0,\n      _target\n    );\n    // trigger an event\n    emit ProjectCreated(projectCount, _name, _desc, msg.sender, _endDate, true, 0, _target);\n  }\n\n  function fundProject(uint256 _id) public payable ProjectExists(_id) {\n    // Fetch the Project\n    Project memory _project = projects[_id];\n    //Fetch the Project Owner\n    address _owner = _project.owner;\n    // Make sure the project has valid ID\n    require(_project.id > 0 && _project.id <= projectCount);\n    // Check if the Project end Date is greater than now\n    require(block.timestamp < _project.endDate, 'Project is closed.');\n    // Check if the owner is trying to fund and reject it\n    require(_owner != msg.sender, \"Owner can't fund the project created by themselves.\");\n    //Sent ether must be greater than 0\n    require(msg.value > 0);\n    // Fund it\n    _project.balance += msg.value;\n    // Update the Project\n    projects[_id] = _project;\n    // contributors can again send the money\n    contributions[_id][msg.sender] += msg.value;\n\n    if (contributors[_id].contains(msg.sender) != true) {\n      contributors[_id].add(msg.sender);\n    }\n    // Trigger the event\n    emit ProjectFunded(_project.id, _project.owner, msg.sender, msg.value);\n  }\n\n  function closeProject(uint256 _id) public OnlyOwner(_id) ProjectExists(_id) {\n    // Fetch the Project\n    Project memory _project = projects[_id];\n    _project.exists = false;\n    payable(_project.owner).transfer(_project.balance);\n    _project.balance = 0;\n    projects[_id] = _project;\n    emit ProjectEnded(_project.id, _project.name, _project.balance);\n  }\n  \n  function getContibutionsLength(uint256 project_id)\n    public\n    view\n    ProjectExists(project_id)\n    returns (uint256 length)\n  {\n    return contributors[project_id].length();\n  }\n\n  function getContributor(uint256 project_id, uint256 position)\n    public\n    view\n    ProjectExists(project_id)\n    returns (address)\n  {\n    address _contributorsAddress = contributors[project_id].at(position);\n    return _contributorsAddress;\n  }\n  \n   function balanceOfProjects() public view returns (uint256) {\n    return address(this).balance;\n  }\n \n}",
  "sourcePath": "C:\\Users\\pc\\Desktop\\CrowdFunding-main\\contracts\\CrowdFunding.sol",
  "compiler": {
    "name": "solc",
    "version": "0.8.10+commit.fc410830.Emscripten.clang"
  },
  "schemaVersion": "3.4.3",
  "updatedAt": "2021-12-06T13:54:11.279Z",
  "networkType": "ethereum",
  "devdoc": {
    "kind": "dev",
    "methods": {},
    "version": 1
  },
  "userdoc": {
    "kind": "user",
    "methods": {},
    "version": 1
  }
}